:060000000A128A110C280F
:10000800FE00030EF1000A08F2000A168A113E2CBF
:100018000A128A110F288313C230FD001330FE0024
:100028007130FF00A03084000A168A112C230A12AE
:100038008A110A128A11FE270A128A11EF00831602
:100048000313C201C301C401C50183120313E201F2
:10005800E301E401E501E601E701E801E901EA015C
:10006800EB01EC01ED01EE01F801F901FA01830160
:100078000A128A15D12883120313DF006E03031DA9
:1000880046284728072A0A168A111B230A128A11AA
:100098009A3083120313A0009130A1008030D80059
:1000A8005808A2000A168A110B240A128A117A0823
:1000B80083120313D8005807A03E84008313000856
:1000C800A000840A00088403A1008630DA005A08D8
:1000D800A2000A168A110B240A128A11943083127C
:1000E8000313A0009130A100C030D8005808A20026
:1000F8000A168A110B240A128A11C63083120313B6
:10010800D8005808A4000A30F3000030F4006C0846
:10011800D900DA015908F5005A08F6000A168A11BA
:10012800E7250A128A117308303E0A128A15002040
:100138000A128A11C73083120313D8005808A40082
:100148000A30F3000030F4006C08D900DA015908CD
:10015800F5005A08F6000A168A1124250A128A118F
:100168007308303E0A128A1500200A128A11C83014
:1001780083120313D8005808A4003A300A128A15CB
:1001880000200A128A11C93083120313D8005808B4
:10019800A4000A30F3000030F4007808D900DA012E
:1001A8005908F5005A08F6000A168A11E7250A12B6
:1001B8008A117308303E0A128A1500200A128A1121
:1001C800CA3083120313D8005808A4000A30F30079
:1001D8000030F4007808D900DA015908F5005A0807
:1001E800F6000A168A1124250A128A117308303E6D
:1001F8000A128A1500200A128A117030831203131A
:10020800A0009130A1009530D8005808A2000A1625
:100218008A110B240A128A114D3083120313DA0053
:100228001930D9004F30D800D80B1829D90B182904
:10023800DA0B18290A168A111B230A128A11A73009
:1002480083120313A0009030A1008030D800580812
:10025800A2000A168A110B240A128A114C30831242
:100268000313A0009130A100C030D8005808A200A4
:100278000A168A110B240A128A11003083120313FA
:10028800A0009030A100D030D8005808A2000A166B
:100298008A110B240A128A11831203136C08D800DE
:1002A800D9015808F3005908F4003C30F500003033
:1002B800F6000A168A11E0230A128A1178087307D1
:1002C80083120313E4000030031801307407E500BB
:1002D8006508E3006408E2006408F3006508F400B8
:1002E8000030F41BFF30F500F60001300A128A15C1
:1002F80015200A128A11760883120313B1007508B3
:10030800B0007408AF007308AE003E30AD00EB30AB
:10031800AC008530AB001F30AA000A128A113E24B7
:100328000A128A11831203132D08C7002C08C6006D
:100338002B08C5002A08C4000A168A1150260A127A
:100348008A11831203134508E9004408E800640889
:10035800F3006508F4000030F41BFF30F500F600E8
:1003680001300A128A1515200A128A11760883129A
:100378000313B1007508B0007408AF007308AE002D
:100388003D30AD00F530AC00C230AB008F30AA0074
:100398000A128A113E240A128A11831203132D08A5
:1003A800C7002C08C6002B08C5002A08C4000A1676
:1003B8008A1150260A128A11831203134508E7008E
:1003C8004408E6006809D8006909D900D80A031961
:1003D800D90A66085802DA006708031C670A590236
:1003E800DB0064085A0783160313C400831203133F
:1003F80065080318650A5B0783160313C500831293
:100408000313121507150A168A117F250A128A1175
:100418001F30831203135F06031D132A142A1B2A95
:10042800121107110530D8005808ED003D2C6C0852
:10043800D800D9015808F3005908F4003C30F500F9
:100448000030F6000A168A11E0230A128A11780889
:10045800730783120313E400003003180130740794
:10046800E50008307A0203183A2A3B2AA82A6808C5
:100478006202D8006908031C690A6302D90065088A
:10048800803ADA005908803A5A02031D4D2A580862
:100498006402031C502A512A612A1F308312031355
:1004A800A0009130A1008A30D8005808A2000A168E
:1004B8008A110B240A128A116F2B831203136809FD
:1004C800D8006909D900D80A0319D90A6608580258
:1004D800DA006708031C670A5902DB0062085A073A
:1004E800DC0063080318630A5B07DD006508803ACF
:1004F800DE005D08803A5E02031D842A5C086402FF
:10050800031C872A882A982AA03083120313A00084
:100518009130A1008A30D8005808A2000A168A1122
:100528000B240A128A116F2B8E3083120313A0003A
:100538009130A1008A30D8005808A2000A168A1102
:100548000B240A128A116F2B08307A06031DAD2A74
:10055800AE2A482B6408F3006508F4000030F41B49
:10056800FF30F500F60001300A128A1515200A122C
:100578008A11760883120313CF007508CE00740819
:10058800CD007308CC006208F3006308F400003063
:10059800F41BFF30F500F60001300A128A15152009
:1005A8000A128A11760883120313CB007508CA0051
:1005B8007408C9007308C8006208F3006308F400EF
:1005C8000030F41BFF30F500F60001300A128A15DE
:1005D80015200A128A11760883120313B1007508D0
:1005E800B0007408AF007308AE003E30AD00CC30E8
:1005F800AC00CC30AB00CD30AA000A128A113E24E0
:100608000A128A11831203132D08C7002C08C6008A
:100618002B08C5002A08C4000A168A1193230A1257
:100628008A11831203134708D3004608D2004508ED
:10063800D1004408D0000A168A115C270A128A11D0
:10064800031C272B282B382BA03083120313A00060
:100658009130A1008A30D8005808A2000A168A11E1
:100668000B240A128A116F2B8E3083120313A000F9
:100678009130A1008A30D8005808A2000A168A11C1
:100688000B240A128A116F2B09307A06031D4D2B91
:100698004E2B5C2B8030A0009130A1008A30D8000E
:1006A8005808A2000A168A110B240A128A116F2B05
:1006B8000A307A06031D612B622B6F2B1F30A000B6
:1006C8009130A1008A30D8005808A2000A168A1171
:1006D8000B240A128A11C63083120313D800580853
:1006E800A4000A30F3000030F4006C08D900DA01E5
:1006F8005908F5005A08F6000A168A11E7250A1261
:100708008A117308303E0A128A1500200A128A11CB
:10071800C73083120313D8005808A4000A30F30026
:100728000030F4006C08D900DA015908F5005A08BD
:10073800F6000A168A1124250A128A117308303E17
:100748000A128A1500200A128A11C830831203136C
:10075800D8005808A4003A300A128A1500200A1254
:100768008A11C93083120313D8005808A4000A302C
:10077800F3000030F4007808D900DA015908F500D0
:100788005A08F6000A168A11E7250A128A11730810
:10079800303E0A128A1500200A128A11CA308312C2
:1007A8000313D8005808A4000A30F3000030F400FE
:1007B8007808D900DA015908F5005A08F6000A162F
:1007C8008A1124250A128A117308303E0A128A15E2
:1007D80000200A128A117808031DF32BF42B3D2CF4
:1007E800831203136C08031DFA2BFB2B3D2C0711F6
:1007F800121187140A168A111B230A128A116F30E4
:1008080083120313A0009030A1008030D80058084C
:10081800A2000A168A110B240A128A115230831276
:100828000313A0009030A100C030D8005808A200DF
:100838000A168A110B240A128A117F3083120313B5
:10084800DA00D430D9003130D800D80B292CD90B94
:10085800292CDA0B292C831203138710ED01ED0ADA
:100868001030D8005808EE000A168A111B230A1205
:100878008A110800831203132D088039B200320848
:10088800B7002D08B2003207B3003308BD00AC1F13
:100898004E2C4F2C502C3D143D080319542C552C2C
:1008A800642C3D0A031D592C5A2C622C0030AD00D3
:1008B8000030AC000030AB000030AA00AC176C2C44
:1008C8000030AD000030AC000030AB000030AA00B2
:1008D80031088039B2003208B7063108B200320751
:1008E800B3003308B800B01F7A2C7B2C7C2C38144A
:1008F80038080319802C812C902C380A031D852C6C
:10090800862C8E2C0030B1000030B0000030AF00D3
:100918000030AE00B017982C0030B1000030B000A5
:100928000030AF000030AE00380803199C2C9D2C15
:10093800A22C3D08031DA12CA22CAB2C0030AD002D
:100948000030AC000030AB000030AA009E2F2A080F
:10095800B2003208F30030080A168A11B7230A12C7
:100968008A11740883120313C3007308C200420873
:10097800B200B301B401B5013508BC003408BB00AE
:100988003308BA003208B9004308B200B301B40111
:10099800B5013508C1003408C0003308BF0032086B
:1009A800BE002B08B2003208F3002F080A168A117D
:1009B800B7230A128A11740883120313C300730839
:1009C800C2004208B200B301B401B5013208B90748
:1009D800330803110318013E0319F32CBA0734082E
:1009E80003110318013E0319FA2CBB07350803113C
:1009F8000318013E0319012DBC074308B200B301D7
:100A0800B401B5013208BE07330803110318013ECB
:100A180003190F2DBF07340803110318013E0319EA
:100A2800162DC007350803110318013E03191D2DA3
:100A3800C1072C08B2003208F3002E080A168A11E2
:100A4800B7230A128A11740883120313C3007308A8
:100A5800C2004208B200B301B401B5013208B907B7
:100A6800330803110318013E03193B2DBA07340854
:100A780003110318013E0319422DBB073508031162
:100A88000318013E0319492DBC074308B200B301FE
:100A9800B401B5013208BE07330803110318013E3B
:100AA8000319572DBF07340803110318013E031912
:100AB8005E2DC007350803110318013E0319652D83
:100AC800C1070830B2000310B90DBA0DBB0DBC0D3B
:100AD800B20B672D2B08B2003208F3002E080A1655
:100AE8008A11B7230A128A11740883120313C300E8
:100AF8007308C2004208B2004308B300B401B5014C
:100B08003208B907330803110318013E03198D2D64
:100B1800BA07340803110318013E0319942DBB07C3
:100B2800350803110318013E03199B2DBC072A0839
:100B3800B2003208F3002F080A168A11B7230A12E6
:100B48008A11740883120313C3007308C200420891
:100B5800B2004308B300B401B5013208B90733083D
:100B680003110318013E0319BA2DBA0734080311FB
:100B78000318013E0319C12DBB07350803110318DB
:100B8800013E0319C82DBC070830B2000310B90D87
:100B9800BA0DBB0DBC0DB20BCA2D2A08B200320823
:100BA800F3002E080A168A11B7230A128A1174084C
:100BB80083120313C3007308C2004208B20043083B
:100BC800B300B401B5013208B9073308031103189B
:100BD800013E0319F02DBA07340803110318013E2A
:100BE8000319F72DBB07350803110318013E031934
:100BF800FE2DBC072B08B2003208F30030080A1695
:100C08008A11B7230A128A11740883120313C300C6
:100C18007308C2004208B2004308B300B401B5012A
:100C28003208BE07330803110318013E03191D2EAD
:100C3800BF07340803110318013E0319242EC00707
:100C4800350803110318013E03192B2EC1072C0880
:100C5800B2003208F3002F080A168A11B7230A12C5
:100C68008A11740883120313C3007308C200420870
:100C7800B2004308B300B401B5013208BE07330817
:100C880003110318013E03194A2EBF073408031144
:100C98000318013E0319512EC00735080311031824
:100CA800013E0319582EC1072C08B2003208F30080
:100CB80030080A168A11B7230A128A117408831297
:100CC8000313C3007308C2004208B2004308B3000C
:100CD800B401B50108300310B20DB30DB40DB50D54
:100CE800FF3E031D6F2E3208BE0733080311031899
:100CF800013E0319802EBF07340803110318013E73
:100D08000319872EC007350803110318013E03197C
:100D18008E2EC1073908B2003A08B3003B08B40068
:100D28003C08B50018300310B50CB40CB30CB20C69
:100D3800FF3E031D972E3208BE0733080311031820
:100D4800013E0319A82EBF07340803110318013EFA
:100D58000319AF2EC007350803110318013E031904
:100D6800B62EC1070830B2000310B90DBA0DBB0D7D
:100D7800BC0DB20BB82E3D083807B200B301B30D55
:100D88003208823EC20033080318013EFF3EC3000A
:100D9800EA2E0130B2000310BE0DBF0DC00DC10D0B
:100DA800B20BCF2EBC1FD92EDA2EDB2E3E1401300B
:100DB800B2000310B90DBA0DBB0DBC0DB20BDD2E80
:100DC800FF30C2070318C30AFF30C307C01FED2E48
:100DD800EE2ECD2EB801BC1FF22EF32E0F2FFF30B2
:100DE8003905B200FF303A05B300FF303B05B400C7
:100DF8007F303C05B5003508340433043204031948
:100E0800062F072F0A2FB801B80A0F2F3E1C0D2FE7
:100E18000E2F0F2F072F38080319132F142F452FC4
:100E28000130BE07003003180130BF070030031837
:100E38000130C007003003180130C107411C252FBD
:100E4800262F452F3E08B2003F08B3004008B400E3
:100E58004108B5000130B600350DB50CB40CB30C23
:100E6800B20CB60B302F3508C1003408C000330867
:100E7800BF003208BE000130C2070318C30A0030A1
:100E8800C3074308803AFF0080307F02031D4E2FBE
:100E9800FF304202031C512F522F5D2F7F308312E7
:100EA8000313C1008030C0000030BF000030BE0016
:100EB800922F831203134308803AFF0080307F0289
:100EC800031D682F0130420203186B2F6C2F782FF7
:100ED800003083120313C1000030C0000030BF008F
:100EE8000030BE00B701922F831203134208B200EC
:100EF8003208BD00FF30BE05FF30BF057F30C0059A
:100F08000030C1053D1C892F8A2F8B2FC0173D0843
:100F1800B2000310320CB3003308C1003708B20026
:100F28003208C1044108AD004008AC003F08AB00DE
:100F38003E08AA000800F4007408031DA42FA52F7A
:100F4800AA2F8312031306083F39FD2F3F3083125F
:100F580003130605F3003F3073060319B42FB52FAA
:100F6800C22F6F080319B92FBA2FC22FEF01EA0158
:100F780006083F39F3007308EB00FC2F6F08031DC8
:100F8800C62FC72FD92F06083F396B06031DCD2F53
:100F9800CE2FD92F14306A020318D32FD42FD92F6C
:100FA8000130F3007308EA07FC2F14306A02031CAF
:100FB800DE2FDF2FE42FEF01EF0A6B088038FD2FBB
:100FC8003F300605F3003F307306031DEC2FED2F6D
:100FD800FC2F6F08031DF12FF22FFC2FEF01EF0AF2
:100FE8001E306A020318F92FFA2FFC2F6B08FD2F09
:060FF8003F300800013447
:1010000083120313A500F30124080A168A11512341
:101010000A128A15F301F30A8312031325080A162C
:101020008A1151230A128A15080083120313A4009F
:10103000240803191C281D283128F61F20282128E0
:1010400031287309A6007409A7007509A80076095C
:10105000A900A60A0319A70A0319A80A0319A90ACD
:1010600039287608A9007508A8007408A700730835
:10107000A6007608750474047304031D40284128F3
:101080004A280030F6000030F5000030F40000304F
:10109000F300D0289630A0002008A5005C2801307D
:1010A000A0002008A50701300310A90CA80CA70C6C
:1010B000A60CFF3E031D5428FE302905031D6128A0
:1010C00062284F287E280130A0002008A5070130A3
:1010D000A607003003180130A707003003180130BD
:1010E000A807003003180130A90701300310A90C2C
:1010F000A80CA70CA60CFF3E031D7628FF3029057F
:10110000031D83288428632890280130A50201301C
:10111000A0000310A60DA70DA80DA90DA00B8928EE
:10112000A81B932894289A2802302502031899288E
:101130009A28852825189D289E28A628FF30A605D0
:10114000FF30A7057F30A805FF30A9050310A50CC7
:101150002508A000A101A201A30118300310A00DD1
:10116000A10DA20DA30DFF3E031DAE282008A6046D
:101170002108A7042208A8042308A90424080319A5
:10118000C228C328C828F61FC628C728C828A917F8
:101190002908F6002808F5002708F4002608F300BF
:1011A00008000A168A113B230A128A1583120313B8
:1011B000ED01ED0A013083160313C6000030C700AD
:1011C000433083120313A0009030A1008030E00070
:1011D0006008A2000A168A110B240A128A156130CF
:1011E00083120313A0009030A100C030E00060081B
:1011F000A2000A168A110B240A128A1511308312D2
:101200000313A0009030A1009030E0006008A2001D
:101210000A168A110B240A128A1501300A128A1141
:101220009F270A128A152F3A031D172918290D29FD
:101230000A168A111B230A128A150A168A11CC264D
:101240000A128A15103083120313E0006008EE00C2
:1012500001300A128A119F270A128A15831203137A
:10126000E000600883160313C800B7304806031D6A
:101270003A293B294B29831203136D03031D41298E
:1012800042294B290230E0006008ED001130E000F7
:101290006008EE006329B730831603134806031D68
:1012A0005229532963290230831203136D06031D4B
:1012B0005A295B2963290330E0006008ED001230F1
:1012C000E0006008EE002F30831603134806031D6C
:1012D0006A296B29C7290530831203136D06031D84
:1012E00072297329C7290430E0006008ED00121547
:1012F0000715C7298316031348080A128A151223F3
:101300000A128A15DE298316031348080A128A1561
:10131000E5210A128A15DE298316031348080A16E6
:101320008A11CB240A128A1583120313E000600885
:10133000ED006D03031D9D299E29A3291030E000B7
:101340006008EE00DE2904306D06031DA829A929D6
:10135000DE29013083160313C6000030C700DE29E2
:101360008316031346034704031DB729B829BC2974
:1013700083120313EE01EE0A83160313C601C7019D
:1013800048080A128A113F200A128A15DE298312A0
:101390006D08E000E1016108003A0319D029DE2957
:1013A0006008013A03197A29033A03198329013A9B
:1013B00003198C29073A0319B029DE298312031374
:1013C000EE0128290A128A110C2883120313A9009E
:1013D00011306E06031DED29EE29F429F9010A16D4
:1013E0008A111B230A128A15373083120313290628
:1013F000031DFB29FC291F2A0A168A111B230A1226
:101400008A157908013E83120313A60000300318E1
:101410000130A7002708803AFF0080307F02031DBB
:10142000132A05302602031C162A172A192AF90145
:101430001F2A013083120313A6002608F907DA30A9
:1014400083120313A0009030A1008030A60026086C
:10145000A2000A168A110B240A128A15C0308312C0
:101460000313A6002608A4003E300A128A150020A5
:101470000A128A150330790203183F2A402A862A65
:10148000790883120313A6002607B83E840083134D
:101490000008A000840A00088403A100C130A8004D
:1014A0002808A2000A168A110B240A128A15790844
:1014B00083120313A6002607BA3E84008313000894
:1014C000A000840A00088403A1009130A800280825
:1014D000A2000A168A110B240A128A1579088312AF
:1014E0000313A6002607BC3E840083130008A00057
:1014F000840A00088403A100D130A8002808A200B3
:101500000A168A110B240A128A15112B0330790648
:10151000031D8B2A8C2AD02A790883120313A60074
:101520002607B83E840083130008A000840A000840
:101530008403A100C130A8002808A2000A168A115D
:101540000B240A128A15790883120313A6002607B2
:10155000BA3E840083130008A000840A00088403B4
:10156000A1009130A8002808A2000A168A110B24B5
:101570000A128A1583160313380883120313A00076
:1015800083160313390883120313A100D130A60078
:101590002608A2000A168A110B240A128A15112B9A
:1015A000790883120313A6002607B83E840083132C
:1015B0000008A000840A00088403A100C130A8002C
:1015C0002808A2000A168A110B240A128A1583160B
:1015D0000313380883120313A0008316031339087A
:1015E00083120313A1009130A6002608A2000A1658
:1015F0008A110B240A128A15831603133A088312E0
:101600000313A000831603133B0883120313A100E6
:10161000D130A6002608A2000A168A110B240A124D
:101620008A15080083120313A90010306E06031DEB
:101630001A2B1B2B212BFA010A168A111B230A12C3
:101640008A153730831203132906031D282B292BF3
:101650004C2B0A168A111B230A128A157A08013E9E
:1016600083120313A600003003180130A7002708D7
:10167000803AFF0080307F02031D402B0C30260291
:10168000031C432B442B462BFA014C2B01308312B5
:101690000313A6002608FA07223083120313A000C2
:1016A0009030A1008030A6002608A2000A168A11F8
:1016B0000B240A128A15C03083120313A6002608D1
:1016C000A4003E300A128A1500200A128A150A3038
:1016D0007A0203186C2B6D2BB32B7A088312031339
:1016E000A6002607A03E840083130008A000840AF9
:1016F00000088403A100C130A8002808A2000A162F
:101700008A110B240A128A157A0883120313A60081
:101710002607A23E840083130008A000840A000864
:101720008403A1009130A8002808A2000A168A119B
:101730000B240A128A157A0883120313A6002607BF
:10174000A43E840083130008A000840A00088403D8
:10175000A100D130A8002808A2000A168A110B2483
:101760000A128A153E2C0A307A06031DB82BB92BB3
:10177000FD2B7A0883120313A6002607A03E8400DF
:1017800083130008A000840A00088403A100C1306C
:10179000A8002808A2000A168A110B240A128A152A
:1017A0007A0883120313A6002607A23E840083133F
:1017B0000008A000840A00088403A1009130A8005A
:1017C0002808A2000A168A110B240A128A15831609
:1017D0000313200883120313A000831603132108A8
:1017E00083120313A100D130A6002608A2000A1616
:1017F0008A110B240A128A153E2C7A0883120313CD
:10180000A6002607A03E840083130008A000840AD7
:1018100000088403A100C130A8002808A2000A160D
:101820008A110B240A128A158316031320088312C7
:101830000313A00083160313210883120313A100CE
:101840009130A6002608A2000A168A110B240A125B
:101850008A1583160313220883120313A00083162C
:101860000313230883120313A100D130A600260816
:10187000A2000A168A110B240A128A150800412DAB
:101880002130F3007308F80083120313EC016F2D6D
:101890002930F3007308F800442C2D30F30073084E
:1018A000F800442C7908F300F4017408003A031995
:1018B0005A2C6F2D7308003A0319482C013A03196A
:1018C000402C033A0319482C013A03194D2C073ACE
:1018D00003194D2C6F2D2B30F3007308F800442CA6
:1018E0003230F3007308F800442C3930F3007308E9
:1018F000F800442C7908F300F4017408003A031945
:10190000822C6F2D7308003A0319702C013A0319C9
:101910006B2C033A0319702C013A0319752C073A02
:101920000319752C6F2D1A30F3007308F800442C3E
:101930001F30F3007308F800442C7908F300F40119
:101940007408003A0319A52C6F2D7308003A031987
:10195000932C013A0319932C033A0319932C013A5F
:101960000319982C073A0319982C6F2D1030F300A7
:101970007308F80083120313EC01EC0A6F2D243076
:10198000F3007308F800BA2C1C30F3007308F80059
:10199000442C1D30F3007308F8006F2D2E30F30037
:1019A0007308F800442C3530F3007308F800442C19
:1019B0003C30F3007308F800442C7908F300F4017C
:1019C0007408003A0319E52C6F2D7308003A0319C7
:1019D000D32C013A0319CE2C033A0319D32C013A24
:1019E0000319D82C073A0319D82C6F2D1230F300A5
:1019F0007308F800442C1430F3007308F800442CEA
:101A00007908F300F4017408003A0319082D6F2DCA
:101A10007308003A0319FB2C013A0319F62C033A18
:101A20000319FB2C013A0319FB2C073A0319FB2C71
:101A30006F2D0630F3007308F800442C1030F300CB
:101A40007308F800442C1530F3007308F800442C98
:101A50007908F300F4017408003A0319302D6F2D52
:101A60007308003A0319232D013A03191E2D033A76
:101A70000319232D013A0319932C073A0319932CC8
:101A80006F2D7A08F300F4017408003A0319492D08
:101A90006F2D7308003A0319522C013A03197A2C5E
:101AA000033A03199D2C013A0319B62C073A03197E
:101AB000BF2C013A0319C42C033A0319C92C013A6B
:101AC0000319DD2C0F3A0319002D013A0319192DC2
:101AD000033A0319282D013A0319282D6F2D080008
:101AE0008312031323088039A8002808F300230871
:101AF000A8002807A9002908F500A21F802D812D24
:101B0000822D751475080319862D872D972D750A5A
:101B1000031D8B2D8C2D942D0030A3000030A200CE
:101B20000030A1000030A000A217A3019F2D0030BB
:101B3000A3000030A2000030A1000030A000270860
:101B40008039A8002808F400740873060319A92D29
:101B5000AA2DAB2D73172708A8002807A90029086C
:101B6000F400A61FB42DB52DB62D741474080319F6
:101B7000BA2DBB2DCB2D740A031DBF2DC02DC82D32
:101B80000030A7000030A6000030A5000030A400FF
:101B9000A617A701D32D0030A7000030A600003003
:101BA000A5000030A400750874020318D82DD92DA3
:101BB0001D2E731FDC2DDD2DE12D8030A80028089F
:101BC000F3067508A8002808F6007408A80028087D
:101BD000F5007608A8002808F4002008A8002808C6
:101BE000F6002408A8002808A0007608A800280805
:101BF000A4002108A8002808F6002508A800280845
:101C0000A1007608A8002808A5002208A800280836
:101C1000F6002608A8002808A2007608A8002808D0
:101C2000A6002308A8002808F6002708A80028080E
:101C3000A3007608A8002808A700F6017408A800E9
:101C4000A9012908AB0075082802AA00031CAB03F0
:101C50002B08803AFF0080307F02031D312E1A309E
:101C60002A02031C342E352E762E831203132308EA
:101C7000220421042004031D3E2E402E0130412E5B
:101C80000030A8002808F6000030A3000030A200B1
:101C90000030A1000030A0007408A8002808F5005A
:101CA0007C2E761C542E552E602E7608831203133C
:101CB000A8000310280C0138A9002908F600622E9C
:101CC0000310F60C83120313201C672E682E692E56
:101CD000F6170130A800230DA30CA20CA10CA00C38
:101CE000A80B6B2E0130A8002808F50774087502B0
:101CF000031C7B2E7C2E512E731B7F2E802ECF2E0D
:101D00007508031D842E852E902E00308312031338
:101D1000A3000030A2000030A1000030A000FF2F7F
:101D2000831203132408A007250803110318013E9A
:101D300003199B2EA107260803110318013E03195E
:101D4000A22EA207270803110318013E0319A92E8A
:101D5000A307231CAC2EAD2E852F761CB02EB12EE2
:101D6000BA2E7608A8000310280C0138A90029080B
:101D7000F600BC2E0310F60C201CBF2EC02EC12E68
:101D8000F6170130A800230DA30CA20CA10CA00C87
:101D9000A80BC32E0130A8002808F507852F831251
:101DA00003132308803AFF002708803A7F02031DAF
:101DB000E32E26082202031DE32E25082102031D1F
:101DC000E32E240820020318E62EE72E3F2FFF30D3
:101DD000A800FF30A900FF30AA00FF30AB002408A4
:101DE000AC002508AD002608AE002708AF0020088B
:101DF000AC022108031C210FFE2EFF2EAD0222088B
:101E0000031C220F042F052FAE022308031C230FEF
:101E10000A2F0B2FAF022C08A8072D0803182D0F2F
:101E2000122F132FA9072E0803182E0F182F192F62
:101E3000AA072F0803182F0AAB072B08A3002A08AC
:101E4000A2002908A1002808A0008030A8002808C6
:101E5000F306F609F60A7608031D2F2F302F4D2FB3
:101E60000130A007003003180130A107003003182B
:101E70000130A207003003180130A3074D2F2408BA
:101E8000A0022508031C250FA1022608031C260F0B
:101E9000A2022708031C270FA302230822042104FF
:101EA0002004031D542F552F812F7608031D592F11
:101EB0005A2F812F0030A3000030A2000030A10073
:101EC0000030A000FF2F0130A8000310A00DA10DCD
:101ED000A20DA30DA80B652FF61F6F2F702F712F6A
:101EE0002014761C742F752F782F0314F60D7A2F7B
:101EF0000310F60D750803197E2F7F2F812F0130F7
:101F0000F502A21F842F852F632FF401F61F892F5E
:101F10008A2F982F76087F3903198F2F902F932FB0
:101F2000F401F40A982F201C962F972F982F902FAA
:101F3000740803199C2F9D2FD12F0130A00700306A
:101F400003180130A107003003180130A207003048
:101F500003180130A307231CAE2FAF2FD12F200869
:101F6000A8002108A9002208AA002308AB0001301C
:101F7000AC002B0DAB0CAA0CA90CA80CAC0BB92F08
:101F80002B08A3002A08A2002908A1002808A00005
:101F9000750A0319CC2FCD2FD12F0130A8002808A6
:101FA000F507750A0319D52FD62FDB2F7508031DEA
:101FB000DA2FDB2FE92F0030A3000030A200003021
:101FC000A1000030A0007508031DE72FE82FE92FBE
:101FD000F301751CEC2FED2FEF2FA217F32F7F309D
:101FE000A8002808A2057508A8000310280CA9005D
:101FF0002908A300F31FFD2FFE2FFF2FA3170800B2
:1020000035342D3453345434413452345434203420
:10201000203436342D34503441345534533445341F
:102020000034573461347334683469346E3467343F
:10203000203420344D3461346334683469346E3470
:1020400065340034573461347334683469346E3421
:1020500067342034503472346F34673472346134EE
:102060006D347334003457346134733468346934F4
:102070006E34673420344D346134633468346934E9
:102080006E34653400342034503472346534733423
:10209000733420344B34653479343534203454343B
:1020A0006F3400342034523465346D346F347634F8
:1020B0006534203463346C346F347434683473346E
:1020C000003420342034203450346F347734653475
:1020D000723420344F344E342034203400342034D1
:1020E000203443346F346D3470346C34653474345C
:1020F0006534643420342034003450347234653410
:10210000733473342034533477346934743463341F
:1021100068343A340034203450346C3465346134DB
:1021200073346534203463346C346F347334653401
:1021300000342034203450346F34773465347234B2
:1021400069346E34673420344F346E3400342034B4
:10215000463475346E346334743469346F346E3499
:1021600020342D34203400342034203420342034E2
:1021700043346F346D34703461346E3479342034C8
:102180000034203444344F344F34523420343A3401
:1021900020344F34503445344E34003420344634E7
:1021A00075346E346334743469346F346E343A3455
:1021B00020340034573441345434453452342034BC
:1021C0004C344534563445344C3400342034533484
:1021D000573435343A34533454344134523454340B
:1021E00000344134713475346134203453347434E0
:1021F0006F34723465340034203420342034203479
:1022000020344C344F344F34503400342034533461
:10221000573436343A34533454344F345034003411
:102220005634653472347934203468346934673410
:102230006834003453347434613469346E34573440
:102240006134733468340034453463346F34433458
:102250006F34743474346F346E3400344234653403
:1022600064345334683465346534743473340034FE
:10227000573461347334683420344F346E346C34E2
:1022800079340034523469346E34733465342B3409
:1022900044347234793400342034543449344D3465
:1022A00045343A34203420340034203454346934F2
:1022B0006D3465343A342034203400344434653489
:1022C0006C346934633461347434653400344434B8
:1022D0007234793420344F346E346C3479340034B1
:1022E00028344D344D343A34533453342934003483
:1022F00057346F346F346C346C3465346E3400345E
:10230000523469346E3473346534203400344D34BF
:1023100065346434693475346D3400345334703446
:1023200069346E3420340034543469346D34653487
:102330003A340034503472346F3467343A340034F1
:10234000523469346E34733465340034573468342D
:1023500069347434653400344434613469346C3421
:102360007934003448346534613476347934003457
:102370004834693467346834003441347534743413
:102380006F3400344C346F3477340034FF1BD02961
:1023900083137F1883170008840A0319FF0A0800B3
:1023A0007F087F398A000408840A0319FF0A820023
:1025FA008316031306083F38860008008316031360
:10260A008801091189100A168A1179240A168A1171
:10261A0008008312031312149214FA308316031358
:10262A0092008C148312031312110800F301013073
:10263A000A168A1151230A168A11A630F700F70BD7
:10264A00242B000008007E088A007F0882000A16F0
:10265A008A1128230A168A118000840A04087D0632
:10266A0003190034FF0A0319FE0A2C2B0A168A11D1
:10267A0003230A168A110A168A11FD220A168A11DA
:10268A000A168A110E230A168A11831603130711D2
:10269A000B178B1787100800F6007318552B592B48
:1026AA008312031309155C2B83120313091176088D
:1026BA0088008914A630F400F40B612B0000831201
:1026CA00031389101B30F5009E30F400F40B6B2BBA
:1026DA00F50B6B2B00000800AC349134B234913402
:1026EA005E349134A63491341A34913424349134BA
:1026FA00783491342E34913442349134673491349D
:10270A0038349134F1349034BD349134C234913434
:10271A0087349134B8349134103491348030831230
:10272A000313C7064B08A3004A08A2004908A100E0
:10273A004808A0004708A7004608A6004508A500C3
:10274A004408A4000A128A1570250A168A118312EF
:10275A0003132308C7002208C6002108C500200861
:10276A00C400080083120313A400A001A101730886
:10277A00F500F6017508A2007608A300241CC62BF2
:10278A00C72BCD2B2208A0070318A10A2308A107EB
:10279A0001300310A20DA30DFF3E031DCE2B031023
:1027AA00A40C2408031DDA2BDB2BC32B2108F4000D
:1027BA002008F300080083120313A001A101731C6F
:1027CA00E72BE82BF02B750883120313A0070318D5
:1027DA00A10A7608A10701300310F50DF60DFF3E98
:1027EA00031DF12B01300310F40CF30CFF3E031D03
:1027FA00F82B73087404031D032C042CE42B831296
:10280A0003132108F4002008F3000800F3018312DF
:10281A00031322080A168A1151230A168A112D2C2B
:10282A00F301F30A2108FF00200884000A168A111E
:10283A00C6210A168A110A168A1151230A168A1102
:10284A00013083120313A0070318A10A0030A1075D
:10285A00831203132108FF00200884000A168A1134
:10286A00C6210A168A11003A031D3C2C3D2C152C50
:10287A000800831203138C1C432C442C722C013045
:10288A0083160313C2070318C30A0030C307E230D2
:10289A004206043003194306031D542C552C702C90
:1028AA00C201C301780803195B2C5C2C5E2C013031
:1028BA00F8027808031D622C632C702C8312031310
:1028CA006C080319692C6A2C702C0130EC023B301D
:1028DA00F0007008F80083128C1072088A00710EDA
:1028EA008300FE0E7E0E0900C33083120313A1007B
:1028FA00CC30A000A00B7F2CA10B7F2C0000F30191
:10290A0033300A168A1151230A168A111B30831290
:10291A000313A1009D30A000A00B912CA10B912CB8
:10292A00962CF30133300A168A1151230A168A119A
:10293A00A53083120313A000A00BA12CA42CF30131
:10294A0033300A168A1151230A168A11AC2CAD2C7F
:10295A000000F30101300A168A1151230A168A115E
:10296A00A53083120313A000A00BB92CBC2CF301D1
:10297A000C300A168A1151230A168A11A5308312BD
:10298A000313A000A00BC72CCA2C08008312031340
:10299A00A40012306E06031DD32CD42CD92C0A168F
:1029AA008A111B230A168A110A128A153F240A164B
:1029BA008A117D3083120313A0009030A100803069
:1029CA00A3002308A2000A168A110B240A168A11E8
:1029DA00E63083120313A0009030A100C030A30098
:1029EA002308A2000A168A110B240A168A11063035
:1029FA0083120313A0009130A1009030A300230892
:102A0A00A2000A168A110B240A168A111F30831291
:102A1A0003132406031D122D132D1A2D0A168A11CB
:102A2A001B230A168A110130232D2F302406031D79
:102A3A001F2D202D222D0430232D03300800831250
:102A4A000313A101F61F2A2D2B2D322DF509F609A4
:102A5A00F50A0319F60AA101A10AF41F352D362D2C
:102A6A003B2DF309F409F30A0319F40A73087404F1
:102A7A000319402D412D702DA001A00A4F2D0130C0
:102A8A000310F30DF40DFF3E031D452D0130F70031
:102A9A007708A007F41F522D532D442D740876028F
:102AAA00031D592D73087502031C5C2D5D2D632DC2
:102ABA007308F5027408031CF603F60201300310CA
:102ACA00F40CF30CFF3E031D642D0130A002031D1C
:102ADA006F2D702D532D21080319742D752D7A2D04
:102AEA00F509F609F50A0319F60A7608F4007508D5
:102AFA00F3000800831203130618842D852DE62D92
:102B0A001211871407110A168A111B230A168A1131
:102B1A00C13083120313A0009030A1008030A300BB
:102B2A002308A2000A168A110B240A168A118B306E
:102B3A0083120313A0009030A1009030A300230851
:102B4A00A2000A168A110B240A168A118312031389
:102B5A00061CB02DB12DAB2D0715121587100A16BC
:102B6A008A111B230A168A11CE3083120313A0007E
:102B7A009030A1008030A3002308A2000A168A110F
:102B8A000B240A168A11553083120313A0009130C0
:102B9A00A100C030A3002308A2000A168A110B2440
:102BAA000A168A11003083120313A0009030A10084
:102BBA00D030A3002308A2000A168A110B240A1691
:102BCA008A11080083120313A101F41FED2DEE2DC3
:102BDA00F52DF309F409F30A0319F40AA101A10A6C
:102BEA00F61FF82DF92D022EF509F609F50A031933
:102BFA00F60A0130F7007708A106A201A3017308BB
:102C0A0074040319092E0A2E412EA001A00A182EB7
:102C1A0001300310F30DF40DFF3E031D0E2E01309B
:102C2A00F7007708A007F41F1B2E1C2E0D2E01306B
:102C3A000310A20DA30DFF3E031D1D2E740876027C
:102C4A00031D292E73087502031C2C2E2D2E342EDB
:102C5A007308F5027408031CF603F6022214013005
:102C6A000310F40CF30CFF3E031D352E0130A002B5
:102C7A00031D402E412E1C2E21080319452E462ED7
:102C8A004B2EA209A309A20A0319A30A2308F400D6
:102C9A002208F3000800031083120313460D470DA0
:102CAA00C8004808CE004E08031D5C2E5D2E662E15
:102CBA000030C7000030C6000030C5000030C40034
:102CCA00CB2E4408C8004508C9004608CA00470870
:102CDA00CB001F300310CB0CCA0CC90CC80CFF3E2A
:102CEA00031D6F2E4808CC004C08CD00C617FF30D4
:102CFA00C405FF30C505FF30C6050030C70596304C
:102D0A00CE02CE1F892E8A2EA42E4E08803A973ED6
:102D1A000318902E912E922E5D2E01300310C70CAF
:102D2A00C60CC50CC40CFF3E031D932E0130C8000F
:102D3A004808CE07031DA22EA32E922EBB2E2030AA
:102D4A004E02031CA92EAA2EB62E5D2E0130C800F3
:102D5A000310C40DC50DC60DC70DC80BAD2E01302D
:102D6A00CE024E08031DBA2EBB2EAB2E4D080319F8
:102D7A00BF2EC02ECB2EC409C509C609C709C40A6D
:102D8A000319C50A0319C60A0319C70A08008312D8
:102D9A000313A9012908803EA6002608A400FF30D3
:102DAA000A128A1500200A168A11013083120313A7
:102DBA00A6002608A90710302902031CE52EE62ED4
:102DCA00CF2E9930A0009030A100C030A60026086E
:102DDA00A2000A168A110B240A168A1133308312AA
:102DEA000313A0009030A1009030A6002608A2008C
:102DFA000A168A110B240A168A1183120313A901CF
:102E0A002908D03EA6002608A400FF300A128A1517
:102E1A0000200A168A11013083120313A60026081D
:102E2A00A90710302902031C1B2F1C2F052F333032
:102E3A0083120313A800BB30A700DF30A600A60B3D
:102E4A00242FA70B242FA80B242F0A168A111B2321
:102E5A000A168A11FC3083120313A0009030A100D5
:102E6A00C030A6002608A2000A168A110B240A16E8
:102E7A008A11B43083120313A0009030A10090305D
:102E8A00A6002608A2000A168A110B240A168A111D
:102E9A00333083120313A800BB30A700DF30A6002B
:102EAA00A60B552FA70B552FA80B552F080000303E
:102EBA00831203134C05D40000304D05D500803031
:102ECA004E05D6007F304F05D700570856045504E3
:102EDA005404031D712F722F7A2F0030CF00003057
:102EEA00CE000030CD000030CC0000305005D400B8
:102EFA0000305105D50080305205D6007F30530589
:102F0A00D7005708560455045404031D8D2F8E2FDD
:102F1A00962F0030D3000030D2000030D1000030AC
:102F2A00D000CF1F992F9A2FBE2F0030D400003027
:102F3A00D5000030D6008030D7004C08D4024D08A6
:102F4A00031C4D0FA92FAA2FD5024E08031C4E0FA2
:102F5A00AF2FB02FD6024F08031C4F0FB52FB62F35
:102F6A00D7025708CF005608CE005508CD0054089E
:102F7A00CC00D31FC12FC22FE62F0030D40000305F
:102F8A00D5000030D6008030D7005008D40251084E
:102F9A00031C510FD12FD22FD5025208031C520FF6
:102FAA00D72FD82FD6025308031C530FDD2FDE2F3D
:102FBA00D7025708D3005608D2005508D100540842
:102FCA00D0008030CF068030D30653084F02031D4D
:102FDA00F82F52084E02031DF82F51084D02031D07
:102FEA00F82F50084C020318FB2FFC2FFE2F03105A
:062FFA00FF2F0314080084
:02400E00FB3F76
:00000001FF
